{
  "contractName": "Farm",
  "abi": [
    {
      "constant": true,
      "inputs": [],
      "name": "farmer",
      "outputs": [
        {
          "name": "",
          "type": "address"
        }
      ],
      "payable": false,
      "stateMutability": "view",
      "type": "function"
    },
    {
      "inputs": [],
      "payable": false,
      "stateMutability": "nonpayable",
      "type": "constructor"
    },
    {
      "constant": false,
      "inputs": [
        {
          "name": "newFarmer",
          "type": "address"
        }
      ],
      "name": "transferFarmOwnership",
      "outputs": [],
      "payable": false,
      "stateMutability": "nonpayable",
      "type": "function"
    }
  ],
  "bytecode": "0x608060405234801561001057600080fd5b50336000806101000a81548173ffffffffffffffffffffffffffffffffffffffff021916908373ffffffffffffffffffffffffffffffffffffffff160217905550610211806100606000396000f30060806040526004361061004c576000357c0100000000000000000000000000000000000000000000000000000000900463ffffffff1680632ba91ffa14610051578063d811fcf014610094575b600080fd5b34801561005d57600080fd5b50610092600480360381019080803573ffffffffffffffffffffffffffffffffffffffff1690602001909291905050506100eb565b005b3480156100a057600080fd5b506100a96101c0565b604051808273ffffffffffffffffffffffffffffffffffffffff1673ffffffffffffffffffffffffffffffffffffffff16815260200191505060405180910390f35b6000809054906101000a900473ffffffffffffffffffffffffffffffffffffffff1673ffffffffffffffffffffffffffffffffffffffff163373ffffffffffffffffffffffffffffffffffffffff1614151561014657600080fd5b600073ffffffffffffffffffffffffffffffffffffffff168173ffffffffffffffffffffffffffffffffffffffff161415156101bd57806000806101000a81548173ffffffffffffffffffffffffffffffffffffffff021916908373ffffffffffffffffffffffffffffffffffffffff1602179055505b50565b6000809054906101000a900473ffffffffffffffffffffffffffffffffffffffff16815600a165627a7a72305820c9bc307e84e733b0e7842c7adeacd83043663c40b515e865f998ddf717ec60ec0029",
  "source": "pragma solidity ^0.4.24;\n\n\n/**\n* @title SafeMath\n* @dev Math operations with safety checks that throw on error\n*/\nlibrary SafeMath {\n  function mul(uint256 a, uint256 b) internal pure returns (uint256) {\n    uint256 c = a * b;\n    assert(a == 0 || c / a == b);\n    return c;\n  }\n\n  function div(uint256 a, uint256 b) internal pure returns (uint256) {\n    // assert(b > 0); // Solidity automatically throws when dividing by 0\n    uint256 c = a / b;\n    // assert(a == b * c + a % b); // There is no case in which this doesn't hold\n    return c;\n  }\n\n  function sub(uint256 a, uint256 b) internal pure returns (uint256) {\n    assert(b <= a);\n    return a - b;\n  }\n\n  function add(uint256 a, uint256 b) internal pure returns (uint256) {\n    uint256 c = a + b;\n    assert(c >= a);\n    return c;\n  }\n}\n\n\ncontract Farm {\n\n  using SafeMath for uint256;\n\n  address public farmer;\n\n  constructor() public {\n    farmer = msg.sender;\n  }\n\n  modifier restricted() { require(msg.sender == farmer); _; }\n\n  function transferFarmOwnership(address newFarmer) external restricted {\n    if (newFarmer != address(0)) {\n      farmer = newFarmer;\n    }\n  }\n\n}\n\ncontract Pausable is Farm {\n\n  bool public paused = false;\n\n  address public newContractAddress;\n\n  event Pause();\n  event Unpause();\n  event ContractUpgrade(address newContract);\n\n  modifier whenNotPaused() { require(!paused); _; }\n\n  modifier whenPaused { require(paused); _; }\n\n  function pause() public restricted whenNotPaused returns (bool) {\n    paused = true;\n    emit Pause();\n    return true;\n  }\n\n  function unpause() public restricted whenPaused returns (bool) {\n    require(newContractAddress == address(0));\n    paused = false;\n    emit Unpause();\n    return true;\n  }\n\n  function setNewAddress(address _v2Address) external restricted whenPaused {\n      newContractAddress = _v2Address;\n      emit ContractUpgrade(_v2Address);\n  }\n\n}\n\ncontract Piggies is Pausable {\n\n  struct Piggy {\n    uint256 piggyID;\n    uint256 value;\n    bool open;\n    uint256 creationTime;\n    uint256 lastContributionTime;\n    uint256 brokenTime;\n    uint256 brokenBlockNumber;\n    uint256[] contributions;\n    address winner;\n    mapping (address => bool) contributed;\n    mapping (uint256 => address) contributors;\n  }\n\n  uint256 public nbPiggies = 0;\n  uint256 public rateLimit = 10000000000000000;               // E.g. 0.01 ether\n  uint256 public rateCurrent = rateLimit;\n  uint256 public rateNext = rateLimit;\n\n  uint256 public updatePeriod = 15 * 60;                      // Every 15 minutes, the minimum contribution rate is updated\n  uint256 public percentage = 1;                              // The growth percentage of the minimum contribution rate is 100%\n                                                              // Example :\n                                                              //   - If the contribution frequency increases, the minimum contribution rate will increase by 100% every 15 minutes\n                                                              //   - If the contribution frequency decreases, the minimum contribution rate will decrease by 50% every 15 minutes\n\n  uint256 public piggyProtectionTime = 5 * 60;                // The Piggy is protected after each new contribution during piggyProtectionTime\n  uint256 public piggyProtectionLimit = 90 * 24 * 60 * 60;    // After the piggyProtectionLimit, the Piggy isn't protected anymore\n\n  uint256 public localContributionsCounter = 0;\n  uint256 public lastUpdateDate = now;\n  uint256 public lastContributionFrequency = 0;\n\n  mapping (uint256 => Piggy) public piggies;                  // All piggies\n  mapping (address => uint256) public pendingReturnValues;    // Earnings of game vistories\n  mapping (address => uint256) public pendingReturnDates;     // Timestamps of game victories\n\n\n  event PiggyCreated(uint256 _piggyID);\n  event NewPiggyContribution(uint256 _piggyID, address _player, uint256 _value, uint256 _nbContribution);\n  event UpdateRate(uint256 _piggyID, uint256 _rateCurrent, uint256 _rateNext);\n  event PiggyBroken(uint256 _piggyID, uint256 _value, uint256 timestamp, uint256 _nbContribution);\n  event WinnerRevealed(uint256 _piggyID, address _winner, uint256 _value);\n  event Withdrawal(address _player, uint256 _value);\n\n  modifier contributed(address _player) {\n    Piggy storage piggy = piggies[nbPiggies];\n    bool playerContributed = false;\n    if( piggy.contributed[_player] ) {\n      playerContributed = true;\n    }\n    require( playerContributed ); _;\n  }\n\n  modifier noPlayerJoinedRecently() {\n    Piggy storage piggy = piggies[nbPiggies];\n    require( (now > piggy.lastContributionTime.add(piggyProtectionTime) ) || (now > piggy.creationTime.add(piggyProtectionLimit) ) ); _;\n  }\n\n  modifier contributionIsHighEnough(uint256 _contribution) {\n    require( _contribution >= rateCurrent ); _;\n  }\n\n  modifier piggyWinnerIsUnknown(uint256 _piggyID) {\n    Piggy storage piggy = piggies[_piggyID];\n    require( (!piggy.open) && (piggy.winner==address(0)) ); _;\n  }\n\n  modifier blockNumberIsValid(uint256 _currentBlockNumber) {\n    Piggy storage piggy = piggies[nbPiggies];\n    require( piggy.brokenBlockNumber < _currentBlockNumber ); _;\n  }\n\n  // Constructor\n  constructor() public {\n    createNewPiggy();\n  }\n\n  function createNewPiggy() private {\n    require(!piggies[nbPiggies].open);\n\n    nbPiggies = nbPiggies.add(1);\n    uint256 _piggyID = nbPiggies;\n    uint256[] memory _contributions;\n    address _winner;\n\n    piggies[_piggyID] = Piggy({\n      piggyID: _piggyID,\n      value: 0,\n      open: true,\n      creationTime: now,\n      lastContributionTime: now,\n      brokenTime: 0,\n      brokenBlockNumber: 0,\n      contributions: _contributions,\n      winner: _winner\n    });\n\n    rateCurrent = rateLimit;\n    rateNext = rateLimit;\n\n    emit PiggyCreated(_piggyID);\n  }\n\n  function contribute() public payable\n    contributionIsHighEnough(msg.value)\n  {\n    Piggy storage piggy = piggies[nbPiggies];\n    require(piggy.open);\n\n    // If this is the first contribution, the previous winner needs to be revealed\n    if(nbPiggies > 1 && (piggy.value == 0) ) {\n      revealPreviousWinner(nbPiggies.sub(1));\n    }\n\n    piggy.value = piggy.value.add(msg.value);\n\n    piggy.contributions.push(piggy.value);\n    piggy.contributed[msg.sender] = true;\n    piggy.contributors[piggy.value] = msg.sender;\n    piggy.lastContributionTime = now;\n\n    localContributionsCounter = localContributionsCounter.add(1);\n    updateRate();\n\n    emit NewPiggyContribution(nbPiggies, msg.sender, msg.value, getNbContributions(nbPiggies));\n  }\n\n  function updateRate() private {\n    uint256 timeSinceLastUpdate = now.sub(lastUpdateDate);\n    require(rateNext >= rateLimit);\n\n    if ( timeSinceLastUpdate > updatePeriod) {\n      // Update current rate (minimum contribution for the current period)\n      rateCurrent = rateNext;\n\n      // Calculate next rate (minimum contribution for the next period)\n      uint256 decimals = 1000000000;\n      uint256 currentContributionFrequency = localContributionsCounter.mul(decimals).div(timeSinceLastUpdate);\n      if(currentContributionFrequency >= lastContributionFrequency) {\n        rateNext = rateCurrent.mul( percentage.add(100) ).div(100);\n      }\n      else {\n        rateNext = rateCurrent.mul(100).div( percentage.add(100) );\n      }\n\n      if (rateNext < rateLimit) {\n        rateNext = rateLimit;\n      }\n\n      localContributionsCounter = 0;\n      lastUpdateDate = now;\n      lastContributionFrequency = currentContributionFrequency;\n      emit UpdateRate(nbPiggies, rateCurrent, rateNext);\n\n    }\n  }\n\n\n  function breakPiggy() public\n    noPlayerJoinedRecently\n    contributed(msg.sender)\n  {\n    Piggy storage piggy = piggies[nbPiggies];\n    piggy.brokenTime = now;\n    piggy.brokenBlockNumber = block.number;\n    piggy.open = false;\n\n    emit PiggyBroken(nbPiggies, piggy.value, now, getNbContributions(nbPiggies));\n\n    createNewPiggy();\n  }\n\n  function revealPreviousWinner(uint256 _piggyID) private\n    piggyWinnerIsUnknown(_piggyID)\n    blockNumberIsValid(block.number)\n  {\n    Piggy storage piggy = piggies[_piggyID];\n\n    // We need to ensure the element used to define the winner could not be predicted at the time the Piggy was broken (at block #piggy.brokenBlockNumber)\n    uint256 nonPredictableBlockNumber = piggy.brokenBlockNumber.add(1);\n    uint256 distance = block.number - nonPredictableBlockNumber;\n    if( distance > 255 ) {    // Since blockhash() returns 0 if the block is older than 256 blocks, we make sure nonPredictableBlockNumber is not older than 256 blocks.\n      nonPredictableBlockNumber = block.number.sub( distance % 255 );\n    }\n    uint256 winnerNumber = uint256( keccak256(abi.encodePacked(blockhash(nonPredictableBlockNumber))) ) % piggy.value;\n    uint256 totalValue = piggy.value;\n\n    if( piggy.contributions.length == 1) {                                      // If only, one player, he can leave without playing the lottery\n      piggy.winner = piggy.contributors[piggy.contributions[0]];\n    }\n    else {\n      for (uint256 i = 0; i < piggy.contributions.length; i = i.add(1)) {       // If more than one player, play the lottery\n        if( winnerNumber <= piggy.contributions[i] ) {\n          piggy.winner = piggy.contributors[piggy.contributions[i]];\n          uint256 piggyReparationFee = piggy.value.mul(375).div(10000);\n          totalValue = totalValue.sub(piggyReparationFee);\n          pendingReturnValues[farmer] = pendingReturnValues[farmer].add(piggyReparationFee);//A new piggy is offered to the farmer to replace the broken one\n          break;\n        }\n      }\n    }\n\n    pendingReturnValues[piggy.winner] = pendingReturnValues[piggy.winner].add(totalValue);//The winner receives the reward\n    pendingReturnDates[piggy.winner] = now;\n\n    emit WinnerRevealed(_piggyID, piggy.winner, piggy.value);\n  }\n\n  function withdraw(address _withDrawalAddress) public {\n    require(pendingReturnValues[msg.sender]>0);\n    uint256 withdrawalValue = pendingReturnValues[msg.sender];\n    pendingReturnValues[msg.sender] = 0;\n    _withDrawalAddress.transfer(withdrawalValue);\n\n    emit Withdrawal(msg.sender, withdrawalValue);\n  }\n\n  function setRateLimit(uint256 _newRateLimit) public restricted {\n    rateLimit = _newRateLimit;\n  }\n\n  function setUpdatePeriod(uint256 _newUpdatePeriod) public restricted {\n    require(_newUpdatePeriod > 60);\n    updatePeriod = _newUpdatePeriod;\n  }\n\n  function setPercentage(uint256 _newPercentage) public restricted {\n    percentage = _newPercentage;\n  }\n\n  function setPiggyProtectionTime(uint256 _piggyProtectionTime) public restricted {\n    piggyProtectionTime = _piggyProtectionTime;\n  }\n\n  function setPiggyProtectionLimit(uint256 _piggyProtectionLimit) public restricted {\n    piggyProtectionLimit = _piggyProtectionLimit;\n  }\n\n  function getContributionAmount(uint256 _piggyID, address _player) public view returns(uint256) {\n    Piggy storage piggy = piggies[_piggyID];\n    uint256 contributionAmount = 0;\n    for(uint256 i = 0; i < piggy.contributions.length; i = i.add(1)) {\n      if( piggy.contributors[piggy.contributions[i]] == _player ) {\n        if(i==0) {\n          contributionAmount = contributionAmount.add(piggy.contributions[i]);\n        }\n        else {\n          contributionAmount = contributionAmount.add( piggy.contributions[i].sub(piggy.contributions[i.sub(1)]) );\n        }\n      }\n    }\n    return contributionAmount;\n  }\n\n  function getNbContributions(uint256 _piggyID) public view returns(uint256) {\n    Piggy storage piggy = piggies[_piggyID];\n    return piggy.contributions.length;\n  }\n\n  function forgottenFundsRecovery(address _playerAddress, address _withDrawalAddress) public restricted {\n    uint256 oneYear = 365 * 24 * 60 * 60;\n    require(now > oneYear.add(pendingReturnDates[_playerAddress]) );\n    uint256 withdrawalValue = pendingReturnValues[_playerAddress];\n    pendingReturnValues[_playerAddress] = 0;\n    _withDrawalAddress.transfer(withdrawalValue);\n  }\n\n}\n",
  "sourcePath": "/Users/gauthierpetetin/Documents/truffle-test/contracts/PiggyBreaker.sol",
  "compiler": {
    "name": "solc",
    "version": "0.4.24+commit.e67f0147.Emscripten.clang"
  },
  "schemaVersion": "2.0.0",
  "updatedAt": "2018-06-20T22:44:04.082Z"
}