{
  "contractName": "Piggies",
  "abi": [
    {
      "constant": true,
      "inputs": [
        {
          "name": "",
          "type": "address"
        }
      ],
      "name": "pendingReturnValues",
      "outputs": [
        {
          "name": "",
          "type": "uint256"
        }
      ],
      "payable": false,
      "stateMutability": "view",
      "type": "function"
    },
    {
      "constant": true,
      "inputs": [],
      "name": "rateNext",
      "outputs": [
        {
          "name": "",
          "type": "uint256"
        }
      ],
      "payable": false,
      "stateMutability": "view",
      "type": "function"
    },
    {
      "constant": true,
      "inputs": [],
      "name": "localContributionsCounter",
      "outputs": [
        {
          "name": "",
          "type": "uint256"
        }
      ],
      "payable": false,
      "stateMutability": "view",
      "type": "function"
    },
    {
      "constant": true,
      "inputs": [],
      "name": "piggyProtectionLimit",
      "outputs": [
        {
          "name": "",
          "type": "uint256"
        }
      ],
      "payable": false,
      "stateMutability": "view",
      "type": "function"
    },
    {
      "constant": false,
      "inputs": [
        {
          "name": "newFarmer",
          "type": "address"
        }
      ],
      "name": "transferFarmOwnership",
      "outputs": [],
      "payable": false,
      "stateMutability": "nonpayable",
      "type": "function"
    },
    {
      "constant": true,
      "inputs": [],
      "name": "lastContributionFrequency",
      "outputs": [
        {
          "name": "",
          "type": "uint256"
        }
      ],
      "payable": false,
      "stateMutability": "view",
      "type": "function"
    },
    {
      "constant": true,
      "inputs": [
        {
          "name": "",
          "type": "address"
        }
      ],
      "name": "pendingReturnDates",
      "outputs": [
        {
          "name": "",
          "type": "uint256"
        }
      ],
      "payable": false,
      "stateMutability": "view",
      "type": "function"
    },
    {
      "constant": false,
      "inputs": [],
      "name": "unpause",
      "outputs": [
        {
          "name": "",
          "type": "bool"
        }
      ],
      "payable": false,
      "stateMutability": "nonpayable",
      "type": "function"
    },
    {
      "constant": true,
      "inputs": [],
      "name": "piggyProtectionTime",
      "outputs": [
        {
          "name": "",
          "type": "uint256"
        }
      ],
      "payable": false,
      "stateMutability": "view",
      "type": "function"
    },
    {
      "constant": true,
      "inputs": [],
      "name": "paused",
      "outputs": [
        {
          "name": "",
          "type": "bool"
        }
      ],
      "payable": false,
      "stateMutability": "view",
      "type": "function"
    },
    {
      "constant": true,
      "inputs": [],
      "name": "rateLimit",
      "outputs": [
        {
          "name": "",
          "type": "uint256"
        }
      ],
      "payable": false,
      "stateMutability": "view",
      "type": "function"
    },
    {
      "constant": true,
      "inputs": [],
      "name": "newContractAddress",
      "outputs": [
        {
          "name": "",
          "type": "address"
        }
      ],
      "payable": false,
      "stateMutability": "view",
      "type": "function"
    },
    {
      "constant": false,
      "inputs": [
        {
          "name": "_v2Address",
          "type": "address"
        }
      ],
      "name": "setNewAddress",
      "outputs": [],
      "payable": false,
      "stateMutability": "nonpayable",
      "type": "function"
    },
    {
      "constant": false,
      "inputs": [],
      "name": "pause",
      "outputs": [
        {
          "name": "",
          "type": "bool"
        }
      ],
      "payable": false,
      "stateMutability": "nonpayable",
      "type": "function"
    },
    {
      "constant": true,
      "inputs": [],
      "name": "nbPiggies",
      "outputs": [
        {
          "name": "",
          "type": "uint256"
        }
      ],
      "payable": false,
      "stateMutability": "view",
      "type": "function"
    },
    {
      "constant": true,
      "inputs": [],
      "name": "rateCurrent",
      "outputs": [
        {
          "name": "",
          "type": "uint256"
        }
      ],
      "payable": false,
      "stateMutability": "view",
      "type": "function"
    },
    {
      "constant": true,
      "inputs": [],
      "name": "updatePeriod",
      "outputs": [
        {
          "name": "",
          "type": "uint256"
        }
      ],
      "payable": false,
      "stateMutability": "view",
      "type": "function"
    },
    {
      "constant": true,
      "inputs": [
        {
          "name": "",
          "type": "uint256"
        }
      ],
      "name": "piggies",
      "outputs": [
        {
          "name": "piggyID",
          "type": "uint256"
        },
        {
          "name": "value",
          "type": "uint256"
        },
        {
          "name": "open",
          "type": "bool"
        },
        {
          "name": "creationTime",
          "type": "uint256"
        },
        {
          "name": "lastContributionTime",
          "type": "uint256"
        },
        {
          "name": "brokenTime",
          "type": "uint256"
        },
        {
          "name": "brokenBlockNumber",
          "type": "uint256"
        },
        {
          "name": "winner",
          "type": "address"
        }
      ],
      "payable": false,
      "stateMutability": "view",
      "type": "function"
    },
    {
      "constant": true,
      "inputs": [],
      "name": "percentage",
      "outputs": [
        {
          "name": "",
          "type": "uint256"
        }
      ],
      "payable": false,
      "stateMutability": "view",
      "type": "function"
    },
    {
      "constant": true,
      "inputs": [],
      "name": "farmer",
      "outputs": [
        {
          "name": "",
          "type": "address"
        }
      ],
      "payable": false,
      "stateMutability": "view",
      "type": "function"
    },
    {
      "constant": true,
      "inputs": [],
      "name": "lastUpdateDate",
      "outputs": [
        {
          "name": "",
          "type": "uint256"
        }
      ],
      "payable": false,
      "stateMutability": "view",
      "type": "function"
    },
    {
      "inputs": [],
      "payable": false,
      "stateMutability": "nonpayable",
      "type": "constructor"
    },
    {
      "anonymous": false,
      "inputs": [
        {
          "indexed": false,
          "name": "_piggyID",
          "type": "uint256"
        }
      ],
      "name": "PiggyCreated",
      "type": "event"
    },
    {
      "anonymous": false,
      "inputs": [
        {
          "indexed": false,
          "name": "_piggyID",
          "type": "uint256"
        },
        {
          "indexed": false,
          "name": "_player",
          "type": "address"
        },
        {
          "indexed": false,
          "name": "_value",
          "type": "uint256"
        },
        {
          "indexed": false,
          "name": "_nbContribution",
          "type": "uint256"
        }
      ],
      "name": "NewPiggyContribution",
      "type": "event"
    },
    {
      "anonymous": false,
      "inputs": [
        {
          "indexed": false,
          "name": "_piggyID",
          "type": "uint256"
        },
        {
          "indexed": false,
          "name": "_rateCurrent",
          "type": "uint256"
        },
        {
          "indexed": false,
          "name": "_rateNext",
          "type": "uint256"
        }
      ],
      "name": "UpdateRate",
      "type": "event"
    },
    {
      "anonymous": false,
      "inputs": [
        {
          "indexed": false,
          "name": "_piggyID",
          "type": "uint256"
        },
        {
          "indexed": false,
          "name": "_value",
          "type": "uint256"
        },
        {
          "indexed": false,
          "name": "timestamp",
          "type": "uint256"
        },
        {
          "indexed": false,
          "name": "_nbContribution",
          "type": "uint256"
        }
      ],
      "name": "PiggyBroken",
      "type": "event"
    },
    {
      "anonymous": false,
      "inputs": [
        {
          "indexed": false,
          "name": "_piggyID",
          "type": "uint256"
        },
        {
          "indexed": false,
          "name": "_winner",
          "type": "address"
        },
        {
          "indexed": false,
          "name": "_value",
          "type": "uint256"
        }
      ],
      "name": "WinnerRevealed",
      "type": "event"
    },
    {
      "anonymous": false,
      "inputs": [
        {
          "indexed": false,
          "name": "_player",
          "type": "address"
        },
        {
          "indexed": false,
          "name": "_value",
          "type": "uint256"
        }
      ],
      "name": "Withdrawal",
      "type": "event"
    },
    {
      "anonymous": false,
      "inputs": [],
      "name": "Pause",
      "type": "event"
    },
    {
      "anonymous": false,
      "inputs": [],
      "name": "Unpause",
      "type": "event"
    },
    {
      "anonymous": false,
      "inputs": [
        {
          "indexed": false,
          "name": "newContract",
          "type": "address"
        }
      ],
      "name": "ContractUpgrade",
      "type": "event"
    },
    {
      "constant": false,
      "inputs": [],
      "name": "contribute",
      "outputs": [],
      "payable": true,
      "stateMutability": "payable",
      "type": "function"
    },
    {
      "constant": false,
      "inputs": [],
      "name": "breakPiggy",
      "outputs": [],
      "payable": false,
      "stateMutability": "nonpayable",
      "type": "function"
    },
    {
      "constant": false,
      "inputs": [
        {
          "name": "_withDrawalAddress",
          "type": "address"
        }
      ],
      "name": "withdraw",
      "outputs": [],
      "payable": false,
      "stateMutability": "nonpayable",
      "type": "function"
    },
    {
      "constant": false,
      "inputs": [
        {
          "name": "_newRateLimit",
          "type": "uint256"
        }
      ],
      "name": "setRateLimit",
      "outputs": [],
      "payable": false,
      "stateMutability": "nonpayable",
      "type": "function"
    },
    {
      "constant": false,
      "inputs": [
        {
          "name": "_newUpdatePeriod",
          "type": "uint256"
        }
      ],
      "name": "setUpdatePeriod",
      "outputs": [],
      "payable": false,
      "stateMutability": "nonpayable",
      "type": "function"
    },
    {
      "constant": false,
      "inputs": [
        {
          "name": "_newPercentage",
          "type": "uint256"
        }
      ],
      "name": "setPercentage",
      "outputs": [],
      "payable": false,
      "stateMutability": "nonpayable",
      "type": "function"
    },
    {
      "constant": false,
      "inputs": [
        {
          "name": "_piggyProtectionTime",
          "type": "uint256"
        }
      ],
      "name": "setPiggyProtectionTime",
      "outputs": [],
      "payable": false,
      "stateMutability": "nonpayable",
      "type": "function"
    },
    {
      "constant": false,
      "inputs": [
        {
          "name": "_piggyProtectionLimit",
          "type": "uint256"
        }
      ],
      "name": "setPiggyProtectionLimit",
      "outputs": [],
      "payable": false,
      "stateMutability": "nonpayable",
      "type": "function"
    },
    {
      "constant": true,
      "inputs": [
        {
          "name": "_piggyID",
          "type": "uint256"
        },
        {
          "name": "_player",
          "type": "address"
        }
      ],
      "name": "getContributionAmount",
      "outputs": [
        {
          "name": "",
          "type": "uint256"
        }
      ],
      "payable": false,
      "stateMutability": "view",
      "type": "function"
    },
    {
      "constant": true,
      "inputs": [
        {
          "name": "_piggyID",
          "type": "uint256"
        }
      ],
      "name": "getNbContributions",
      "outputs": [
        {
          "name": "",
          "type": "uint256"
        }
      ],
      "payable": false,
      "stateMutability": "view",
      "type": "function"
    },
    {
      "constant": false,
      "inputs": [
        {
          "name": "_playerAddress",
          "type": "address"
        },
        {
          "name": "_withDrawalAddress",
          "type": "address"
        }
      ],
      "name": "forgottenFundsRecovery",
      "outputs": [],
      "payable": false,
      "stateMutability": "nonpayable",
      "type": "function"
    }
  ],
  "bytecode": "0x608060405260008060146101000a81548160ff0219169083151502179055506000600255662386f26fc10000600355600354600455600354600555610384600655600160075561012c6008556276a7006009556000600a5542600b556000600c553480156200006d57600080fd5b50336000806101000a81548173ffffffffffffffffffffffffffffffffffffffff021916908373ffffffffffffffffffffffffffffffffffffffff160217905550620000c7620000cd640100000000026401000000009004565b62000354565b600060606000600d6000600254815260200190815260200160002060020160009054906101000a900460ff161515156200010657600080fd5b6200012c6001600254620002bb64010000000002620018a8179091906401000000009004565b6002819055506002549250610120604051908101604052808481526020016000815260200160011515815260200142815260200142815260200160008152602001600081526020018381526020018273ffffffffffffffffffffffffffffffffffffffff16815250600d6000858152602001908152602001600020600082015181600001556020820151816001015560408201518160020160006101000a81548160ff021916908315150217905550606082015181600301556080820151816004015560a0820151816005015560c0820151816006015560e082015181600701908051906020019062000221929190620002da565b506101008201518160080160006101000a81548173ffffffffffffffffffffffffffffffffffffffff021916908373ffffffffffffffffffffffffffffffffffffffff1602179055509050506003546004819055506003546005819055507fefc4466df13e107a7ce499a5151fd5f951c2bb2cbba7392d74d7be865a0225c8836040518082815260200191505060405180910390a1505050565b6000808284019050838110151515620002d057fe5b8091505092915050565b82805482825590600052602060002090810192821562000319579160200282015b8281111562000318578251825591602001919060010190620002fb565b5b5090506200032891906200032c565b5090565b6200035191905b808211156200034d57600081600090555060010162000333565b5090565b90565b61239b80620003646000396000f300608060405260043610610196576000357c0100000000000000000000000000000000000000000000000000000000900463ffffffff1680630314c1bf1461019b578063069045dd146101b257806307ef884414610209578063113c3a6e1461023457806316ff4cfb146102975780631966d982146102c25780632ba91ffa146102ed5780632d7a5f1d1461033057806338603b011461035b5780633f4ba83a146103b2578063429f47d7146103e157806351cff8d91461040c5780635c93a7841461044f5780635c975abb146104b05780635da4a1d3146104df57806360a1b3911461050c57806361e08e72146105395780636af04a571461056457806371587988146105bb5780638456cb59146105fe578063847d64551461062d578063961139e2146106585780639de2b11b14610699578063a83627de146106c4578063af682bb6146106ef578063c287184e14610791578063c78ad77f146107be578063cf10ce0c146107e9578063d7bb99ba14610816578063d811fcf014610820578063e55fae7714610877578063ff5ef440146108a4575b600080fd5b3480156101a757600080fd5b506101b06108cf565b005b3480156101be57600080fd5b506101f3600480360381019080803573ffffffffffffffffffffffffffffffffffffffff169060200190929190505050610a69565b6040518082815260200191505060405180910390f35b34801561021557600080fd5b5061021e610a81565b6040518082815260200191505060405180910390f35b34801561024057600080fd5b50610295600480360381019080803573ffffffffffffffffffffffffffffffffffffffff169060200190929190803573ffffffffffffffffffffffffffffffffffffffff169060200190929190505050610a87565b005b3480156102a357600080fd5b506102ac610c1f565b6040518082815260200191505060405180910390f35b3480156102ce57600080fd5b506102d7610c25565b6040518082815260200191505060405180910390f35b3480156102f957600080fd5b5061032e600480360381019080803573ffffffffffffffffffffffffffffffffffffffff169060200190929190505050610c2b565b005b34801561033c57600080fd5b50610345610d00565b6040518082815260200191505060405180910390f35b34801561036757600080fd5b5061039c600480360381019080803573ffffffffffffffffffffffffffffffffffffffff169060200190929190505050610d06565b6040518082815260200191505060405180910390f35b3480156103be57600080fd5b506103c7610d1e565b604051808215151515815260200191505060405180910390f35b3480156103ed57600080fd5b506103f6610e40565b6040518082815260200191505060405180910390f35b34801561041857600080fd5b5061044d600480360381019080803573ffffffffffffffffffffffffffffffffffffffff169060200190929190505050610e46565b005b34801561045b57600080fd5b5061049a60048036038101908080359060200190929190803573ffffffffffffffffffffffffffffffffffffffff169060200190929190505050610fd2565b6040518082815260200191505060405180910390f35b3480156104bc57600080fd5b506104c5611160565b604051808215151515815260200191505060405180910390f35b3480156104eb57600080fd5b5061050a60048036038101908080359060200190929190505050611173565b005b34801561051857600080fd5b50610537600480360381019080803590602001909291905050506111d8565b005b34801561054557600080fd5b5061054e61123d565b6040518082815260200191505060405180910390f35b34801561057057600080fd5b50610579611243565b604051808273ffffffffffffffffffffffffffffffffffffffff1673ffffffffffffffffffffffffffffffffffffffff16815260200191505060405180910390f35b3480156105c757600080fd5b506105fc600480360381019080803573ffffffffffffffffffffffffffffffffffffffff169060200190929190505050611269565b005b34801561060a57600080fd5b50610613611386565b604051808215151515815260200191505060405180910390f35b34801561063957600080fd5b5061064261144d565b6040518082815260200191505060405180910390f35b34801561066457600080fd5b5061068360048036038101908080359060200190929190505050611453565b6040518082815260200191505060405180910390f35b3480156106a557600080fd5b506106ae61147b565b6040518082815260200191505060405180910390f35b3480156106d057600080fd5b506106d9611481565b6040518082815260200191505060405180910390f35b3480156106fb57600080fd5b5061071a60048036038101908080359060200190929190505050611487565b60405180898152602001888152602001871515151581526020018681526020018581526020018481526020018381526020018273ffffffffffffffffffffffffffffffffffffffff1673ffffffffffffffffffffffffffffffffffffffff1681526020019850505050505050505060405180910390f35b34801561079d57600080fd5b506107bc600480360381019080803590602001909291905050506114fc565b005b3480156107ca57600080fd5b506107d3611561565b6040518082815260200191505060405180910390f35b3480156107f557600080fd5b5061081460048036038101908080359060200190929190505050611567565b005b61081e6115cc565b005b34801561082c57600080fd5b50610835611809565b604051808273ffffffffffffffffffffffffffffffffffffffff1673ffffffffffffffffffffffffffffffffffffffff16815260200191505060405180910390f35b34801561088357600080fd5b506108a26004803603810190808035906020019092919050505061182e565b005b3480156108b057600080fd5b506108b96118a2565b6040518082815260200191505060405180910390f35b600080600d60006002548152602001908152602001600020905061090260085482600401546118a890919063ffffffff16565b421180610926575061092360095482600301546118a890919063ffffffff16565b42115b151561093157600080fd5b33600080600d600060025481526020019081526020016000209150600090508160090160008473ffffffffffffffffffffffffffffffffffffffff1673ffffffffffffffffffffffffffffffffffffffff16815260200190815260200160002060009054906101000a900460ff16156109a957600190505b8015156109b557600080fd5b600d60006002548152602001908152602001600020945042856005018190555043856006018190555060008560020160006101000a81548160ff0219169083151502179055507fd222c093431525a458c26a43802e3113e53152c943ff9d4248a0a30d443a5dfc600254866001015442610a30600254611453565b6040518085815260200184815260200183815260200182815260200194505050505060405180910390a1610a626118c6565b5050505050565b600e6020528060005260406000206000915090505481565b60055481565b6000806000809054906101000a900473ffffffffffffffffffffffffffffffffffffffff1673ffffffffffffffffffffffffffffffffffffffff163373ffffffffffffffffffffffffffffffffffffffff16141515610ae557600080fd5b6301e133809150610b3e600f60008673ffffffffffffffffffffffffffffffffffffffff1673ffffffffffffffffffffffffffffffffffffffff16815260200190815260200160002054836118a890919063ffffffff16565b42111515610b4b57600080fd5b600e60008573ffffffffffffffffffffffffffffffffffffffff1673ffffffffffffffffffffffffffffffffffffffff1681526020019081526020016000205490506000600e60008673ffffffffffffffffffffffffffffffffffffffff1673ffffffffffffffffffffffffffffffffffffffff168152602001908152602001600020819055508273ffffffffffffffffffffffffffffffffffffffff166108fc829081150290604051600060405180830381858888f19350505050158015610c18573d6000803e3d6000fd5b5050505050565b600a5481565b60095481565b6000809054906101000a900473ffffffffffffffffffffffffffffffffffffffff1673ffffffffffffffffffffffffffffffffffffffff163373ffffffffffffffffffffffffffffffffffffffff16141515610c8657600080fd5b600073ffffffffffffffffffffffffffffffffffffffff168173ffffffffffffffffffffffffffffffffffffffff16141515610cfd57806000806101000a81548173ffffffffffffffffffffffffffffffffffffffff021916908373ffffffffffffffffffffffffffffffffffffffff1602179055505b50565b600c5481565b600f6020528060005260406000206000915090505481565b60008060009054906101000a900473ffffffffffffffffffffffffffffffffffffffff1673ffffffffffffffffffffffffffffffffffffffff163373ffffffffffffffffffffffffffffffffffffffff16141515610d7b57600080fd5b600060149054906101000a900460ff161515610d9657600080fd5b600073ffffffffffffffffffffffffffffffffffffffff16600160009054906101000a900473ffffffffffffffffffffffffffffffffffffffff1673ffffffffffffffffffffffffffffffffffffffff16141515610df357600080fd5b60008060146101000a81548160ff0219169083151502179055507f7805862f689e2f13df9f062ff482ad3ad112aca9e0847911ed832e158c525b3360405160405180910390a16001905090565b60085481565b600080600e60003373ffffffffffffffffffffffffffffffffffffffff1673ffffffffffffffffffffffffffffffffffffffff16815260200190815260200160002054111515610e9557600080fd5b600e60003373ffffffffffffffffffffffffffffffffffffffff1673ffffffffffffffffffffffffffffffffffffffff1681526020019081526020016000205490506000600e60003373ffffffffffffffffffffffffffffffffffffffff1673ffffffffffffffffffffffffffffffffffffffff168152602001908152602001600020819055508173ffffffffffffffffffffffffffffffffffffffff166108fc829081150290604051600060405180830381858888f19350505050158015610f62573d6000803e3d6000fd5b507f7fcf532c15f0a6db0bd6d0e038bea71d30d808c7d98cb3bf7268a95bf5081b653382604051808373ffffffffffffffffffffffffffffffffffffffff1673ffffffffffffffffffffffffffffffffffffffff1681526020018281526020019250505060405180910390a15050565b600080600080600d6000878152602001908152602001600020925060009150600090505b8260070180549050811015611154578473ffffffffffffffffffffffffffffffffffffffff1683600a016000856007018481548110151561103357fe5b9060005260206000200154815260200190815260200160002060009054906101000a900473ffffffffffffffffffffffffffffffffffffffff1673ffffffffffffffffffffffffffffffffffffffff1614156111395760008114156110c7576110c083600701828154811015156110a657fe5b9060005260206000200154836118a890919063ffffffff16565b9150611138565b611135611126846007016110e5600185611aa190919063ffffffff16565b8154811015156110f157fe5b9060005260206000200154856007018481548110151561110d57fe5b9060005260206000200154611aa190919063ffffffff16565b836118a890919063ffffffff16565b91505b5b61114d6001826118a890919063ffffffff16565b9050610ff6565b81935050505092915050565b600060149054906101000a900460ff1681565b6000809054906101000a900473ffffffffffffffffffffffffffffffffffffffff1673ffffffffffffffffffffffffffffffffffffffff163373ffffffffffffffffffffffffffffffffffffffff161415156111ce57600080fd5b8060078190555050565b6000809054906101000a900473ffffffffffffffffffffffffffffffffffffffff1673ffffffffffffffffffffffffffffffffffffffff163373ffffffffffffffffffffffffffffffffffffffff1614151561123357600080fd5b8060098190555050565b60035481565b600160009054906101000a900473ffffffffffffffffffffffffffffffffffffffff1681565b6000809054906101000a900473ffffffffffffffffffffffffffffffffffffffff1673ffffffffffffffffffffffffffffffffffffffff163373ffffffffffffffffffffffffffffffffffffffff161415156112c457600080fd5b600060149054906101000a900460ff1615156112df57600080fd5b80600160006101000a81548173ffffffffffffffffffffffffffffffffffffffff021916908373ffffffffffffffffffffffffffffffffffffffff1602179055507f450db8da6efbe9c22f2347f7c2021231df1fc58d3ae9a2fa75d39fa44619930581604051808273ffffffffffffffffffffffffffffffffffffffff1673ffffffffffffffffffffffffffffffffffffffff16815260200191505060405180910390a150565b60008060009054906101000a900473ffffffffffffffffffffffffffffffffffffffff1673ffffffffffffffffffffffffffffffffffffffff163373ffffffffffffffffffffffffffffffffffffffff161415156113e357600080fd5b600060149054906101000a900460ff161515156113ff57600080fd5b6001600060146101000a81548160ff0219169083151502179055507f6985a02210a168e66602d3235cb6db0e70f92b3ba4d376a33c0f3d9434bff62560405160405180910390a16001905090565b60025481565b600080600d600084815260200190815260200160002090508060070180549050915050919050565b60045481565b60065481565b600d6020528060005260406000206000915090508060000154908060010154908060020160009054906101000a900460ff16908060030154908060040154908060050154908060060154908060080160009054906101000a900473ffffffffffffffffffffffffffffffffffffffff16905088565b6000809054906101000a900473ffffffffffffffffffffffffffffffffffffffff1673ffffffffffffffffffffffffffffffffffffffff163373ffffffffffffffffffffffffffffffffffffffff1614151561155757600080fd5b8060038190555050565b60075481565b6000809054906101000a900473ffffffffffffffffffffffffffffffffffffffff1673ffffffffffffffffffffffffffffffffffffffff163373ffffffffffffffffffffffffffffffffffffffff161415156115c257600080fd5b8060088190555050565b60003460045481101515156115e057600080fd5b600d6000600254815260200190815260200160002091508160020160009054906101000a900460ff16151561161457600080fd5b600160025411801561162a575060008260010154145b1561164e5761164d6116486001600254611aa190919063ffffffff16565b611aba565b5b6116653483600101546118a890919063ffffffff16565b8260010181905550816007018260010154908060018154018082558091505090600182039060005260206000200160009091929091909150555060018260090160003373ffffffffffffffffffffffffffffffffffffffff1673ffffffffffffffffffffffffffffffffffffffff16815260200190815260200160002060006101000a81548160ff0219169083151502179055503382600a0160008460010154815260200190815260200160002060006101000a81548173ffffffffffffffffffffffffffffffffffffffff021916908373ffffffffffffffffffffffffffffffffffffffff1602179055504282600401819055506117706001600a546118a890919063ffffffff16565b600a8190555061177e612127565b7f4ea2a6a5cbcf9f43f9281c73bdd2580f070b86096ebd9df6734904d2e81f948d60025433346117af600254611453565b604051808581526020018473ffffffffffffffffffffffffffffffffffffffff1673ffffffffffffffffffffffffffffffffffffffff16815260200183815260200182815260200194505050505060405180910390a15050565b6000809054906101000a900473ffffffffffffffffffffffffffffffffffffffff1681565b6000809054906101000a900473ffffffffffffffffffffffffffffffffffffffff1673ffffffffffffffffffffffffffffffffffffffff163373ffffffffffffffffffffffffffffffffffffffff1614151561188957600080fd5b603c8111151561189857600080fd5b8060068190555050565b600b5481565b60008082840190508381101515156118bc57fe5b8091505092915050565b600060606000600d6000600254815260200190815260200160002060020160009054906101000a900460ff161515156118fe57600080fd5b61191460016002546118a890919063ffffffff16565b6002819055506002549250610120604051908101604052808481526020016000815260200160011515815260200142815260200142815260200160008152602001600081526020018381526020018273ffffffffffffffffffffffffffffffffffffffff16815250600d6000858152602001908152602001600020600082015181600001556020820151816001015560408201518160020160006101000a81548160ff021916908315150217905550606082015181600301556080820151816004015560a0820151816005015560c0820151816006015560e0820151816007019080519060200190611a079291906122fd565b506101008201518160080160006101000a81548173ffffffffffffffffffffffffffffffffffffffff021916908373ffffffffffffffffffffffffffffffffffffffff1602179055509050506003546004819055506003546005819055507fefc4466df13e107a7ce499a5151fd5f951c2bb2cbba7392d74d7be865a0225c8836040518082815260200191505060405180910390a1505050565b6000828211151515611aaf57fe5b818303905092915050565b6000806000806000806000876000600d600083815260200190815260200160002090508060020160009054906101000a900460ff16158015611b4c5750600073ffffffffffffffffffffffffffffffffffffffff168160080160009054906101000a900473ffffffffffffffffffffffffffffffffffffffff1673ffffffffffffffffffffffffffffffffffffffff16145b1515611b5757600080fd5b436000600d600060025481526020019081526020016000209050818160060154101515611b8357600080fd5b600d60008d81526020019081526020016000209a50611bb060018c600601546118a890919063ffffffff16565b9950894303985060ff891115611be257611bdf60ff8a811515611bcf57fe5b0643611aa190919063ffffffff16565b99505b8a600101548a406040516020018082600019166000191681526020019150506040516020818303038152906040526040518082805190602001908083835b602083101515611c455780518252602082019150602081019050602083039250611c20565b6001836020036101000a038019825116818451168082178552505050505050905001915050604051809103902060019004811515611c7f57fe5b0697508a60010154965060018b600701805490501415611d32578a600a0160008c6007016000815481101515611cb157fe5b9060005260206000200154815260200190815260200160002060009054906101000a900473ffffffffffffffffffffffffffffffffffffffff168b60080160006101000a81548173ffffffffffffffffffffffffffffffffffffffff021916908373ffffffffffffffffffffffffffffffffffffffff160217905550611f39565b600095505b8a60070180549050861015611f38578a60070186815481101515611d5757fe5b906000526020600020015488111515611f1d578a600a0160008c60070188815481101515611d8157fe5b9060005260206000200154815260200190815260200160002060009054906101000a900473ffffffffffffffffffffffffffffffffffffffff168b60080160006101000a81548173ffffffffffffffffffffffffffffffffffffffff021916908373ffffffffffffffffffffffffffffffffffffffff160217905550611e2a612710611e1c6101778e600101546122af90919063ffffffff16565b6122e290919063ffffffff16565b9450611e3f8588611aa190919063ffffffff16565b9650611eb485600e60008060009054906101000a900473ffffffffffffffffffffffffffffffffffffffff1673ffffffffffffffffffffffffffffffffffffffff1673ffffffffffffffffffffffffffffffffffffffff168152602001908152602001600020546118a890919063ffffffff16565b600e60008060009054906101000a900473ffffffffffffffffffffffffffffffffffffffff1673ffffffffffffffffffffffffffffffffffffffff1673ffffffffffffffffffffffffffffffffffffffff16815260200190815260200160002081905550611f38565b611f316001876118a890919063ffffffff16565b9550611d37565b5b611faf87600e60008e60080160009054906101000a900473ffffffffffffffffffffffffffffffffffffffff1673ffffffffffffffffffffffffffffffffffffffff1673ffffffffffffffffffffffffffffffffffffffff168152602001908152602001600020546118a890919063ffffffff16565b600e60008d60080160009054906101000a900473ffffffffffffffffffffffffffffffffffffffff1673ffffffffffffffffffffffffffffffffffffffff1673ffffffffffffffffffffffffffffffffffffffff1681526020019081526020016000208190555042600f60008d60080160009054906101000a900473ffffffffffffffffffffffffffffffffffffffff1673ffffffffffffffffffffffffffffffffffffffff1673ffffffffffffffffffffffffffffffffffffffff168152602001908152602001600020819055507f992535e802e8123e9eb931d979647edc6493f77f265deea35426b61dde47f78b8c8c60080160009054906101000a900473ffffffffffffffffffffffffffffffffffffffff168d60010154604051808481526020018373ffffffffffffffffffffffffffffffffffffffff1673ffffffffffffffffffffffffffffffffffffffff168152602001828152602001935050505060405180910390a1505050505050505050505050565b6000806000612141600b5442611aa190919063ffffffff16565b92506003546005541015151561215657600080fd5b6006548311156122aa57600554600481905550633b9aca0091506121978361218984600a546122af90919063ffffffff16565b6122e290919063ffffffff16565b9050600c54811015156121ec576121e160646121d36121c260646007546118a890919063ffffffff16565b6004546122af90919063ffffffff16565b6122e290919063ffffffff16565b600581905550612230565b61222961220560646007546118a890919063ffffffff16565b61221b60646004546122af90919063ffffffff16565b6122e290919063ffffffff16565b6005819055505b6003546005541015612246576003546005819055505b6000600a8190555042600b8190555080600c819055507f25dc915d5f674bc4e4ab6b507d1d742453d2e8408f5886d1485dac0fc875f9ee60025460045460055460405180848152602001838152602001828152602001935050505060405180910390a15b505050565b600080828402905060008414806122d057508284828115156122cd57fe5b04145b15156122d857fe5b8091505092915050565b60008082848115156122f057fe5b0490508091505092915050565b828054828255906000526020600020908101928215612339579160200282015b8281111561233857825182559160200191906001019061231d565b5b509050612346919061234a565b5090565b61236c91905b80821115612368576000816000905550600101612350565b5090565b905600a165627a7a72305820b916e40936aa784d31cb0dd2e7aed1a678e544d71b5320fcddc56aab875c55800029",
  "source": "pragma solidity ^0.4.24;\n\n\n/**\n* @title SafeMath\n* @dev Math operations with safety checks that throw on error\n*/\nlibrary SafeMath {\n  function mul(uint256 a, uint256 b) internal pure returns (uint256) {\n    uint256 c = a * b;\n    assert(a == 0 || c / a == b);\n    return c;\n  }\n\n  function div(uint256 a, uint256 b) internal pure returns (uint256) {\n    // assert(b > 0); // Solidity automatically throws when dividing by 0\n    uint256 c = a / b;\n    // assert(a == b * c + a % b); // There is no case in which this doesn't hold\n    return c;\n  }\n\n  function sub(uint256 a, uint256 b) internal pure returns (uint256) {\n    assert(b <= a);\n    return a - b;\n  }\n\n  function add(uint256 a, uint256 b) internal pure returns (uint256) {\n    uint256 c = a + b;\n    assert(c >= a);\n    return c;\n  }\n}\n\n\ncontract Farm {\n\n  using SafeMath for uint256;\n\n  address public farmer;\n\n  constructor() public {\n    farmer = msg.sender;\n  }\n\n  modifier restricted() { require(msg.sender == farmer); _; }\n\n  function transferFarmOwnership(address newFarmer) external restricted {\n    if (newFarmer != address(0)) {\n      farmer = newFarmer;\n    }\n  }\n\n}\n\ncontract Pausable is Farm {\n\n  bool public paused = false;\n\n  address public newContractAddress;\n\n  event Pause();\n  event Unpause();\n  event ContractUpgrade(address newContract);\n\n  modifier whenNotPaused() { require(!paused); _; }\n\n  modifier whenPaused { require(paused); _; }\n\n  function pause() public restricted whenNotPaused returns (bool) {\n    paused = true;\n    emit Pause();\n    return true;\n  }\n\n  function unpause() public restricted whenPaused returns (bool) {\n    require(newContractAddress == address(0));\n    paused = false;\n    emit Unpause();\n    return true;\n  }\n\n  function setNewAddress(address _v2Address) external restricted whenPaused {\n      newContractAddress = _v2Address;\n      emit ContractUpgrade(_v2Address);\n  }\n\n}\n\ncontract Piggies is Pausable {\n\n  struct Piggy {\n    uint256 piggyID;\n    uint256 value;\n    bool open;\n    uint256 creationTime;\n    uint256 lastContributionTime;\n    uint256 brokenTime;\n    uint256 brokenBlockNumber;\n    uint256[] contributions;\n    address winner;\n    mapping (address => bool) contributed;\n    mapping (uint256 => address) contributors;\n  }\n\n  uint256 public nbPiggies = 0;\n  uint256 public rateLimit = 10000000000000000;               // E.g. 0.01 ether\n  uint256 public rateCurrent = rateLimit;\n  uint256 public rateNext = rateLimit;\n\n  uint256 public updatePeriod = 15 * 60;                      // Every 15 minutes, the minimum contribution rate is updated\n  uint256 public percentage = 1;                              // The growth percentage of the minimum contribution rate is 100%\n                                                              // Example :\n                                                              //   - If the contribution frequency increases, the minimum contribution rate will increase by 100% every 15 minutes\n                                                              //   - If the contribution frequency decreases, the minimum contribution rate will decrease by 50% every 15 minutes\n\n  uint256 public piggyProtectionTime = 5 * 60;                // The Piggy is protected after each new contribution during piggyProtectionTime\n  uint256 public piggyProtectionLimit = 90 * 24 * 60 * 60;    // After the piggyProtectionLimit, the Piggy isn't protected anymore\n\n  uint256 public localContributionsCounter = 0;\n  uint256 public lastUpdateDate = now;\n  uint256 public lastContributionFrequency = 0;\n\n  mapping (uint256 => Piggy) public piggies;                  // All piggies\n  mapping (address => uint256) public pendingReturnValues;    // Earnings of game vistories\n  mapping (address => uint256) public pendingReturnDates;     // Timestamps of game victories\n\n\n  event PiggyCreated(uint256 _piggyID);\n  event NewPiggyContribution(uint256 _piggyID, address _player, uint256 _value, uint256 _nbContribution);\n  event UpdateRate(uint256 _piggyID, uint256 _rateCurrent, uint256 _rateNext);\n  event PiggyBroken(uint256 _piggyID, uint256 _value, uint256 timestamp, uint256 _nbContribution);\n  event WinnerRevealed(uint256 _piggyID, address _winner, uint256 _value);\n  event Withdrawal(address _player, uint256 _value);\n\n  modifier contributed(address _player) {\n    Piggy storage piggy = piggies[nbPiggies];\n    bool playerContributed = false;\n    if( piggy.contributed[_player] ) {\n      playerContributed = true;\n    }\n    require( playerContributed ); _;\n  }\n\n  modifier noPlayerJoinedRecently() {\n    Piggy storage piggy = piggies[nbPiggies];\n    require( (now > piggy.lastContributionTime.add(piggyProtectionTime) ) || (now > piggy.creationTime.add(piggyProtectionLimit) ) ); _;\n  }\n\n  modifier contributionIsHighEnough(uint256 _contribution) {\n    require( _contribution >= rateCurrent ); _;\n  }\n\n  modifier piggyWinnerIsUnknown(uint256 _piggyID) {\n    Piggy storage piggy = piggies[_piggyID];\n    require( (!piggy.open) && (piggy.winner==address(0)) ); _;\n  }\n\n  modifier blockNumberIsValid(uint256 _currentBlockNumber) {\n    Piggy storage piggy = piggies[nbPiggies];\n    require( piggy.brokenBlockNumber < _currentBlockNumber ); _;\n  }\n\n  // Constructor\n  constructor() public {\n    createNewPiggy();\n  }\n\n  function createNewPiggy() private {\n    require(!piggies[nbPiggies].open);\n\n    nbPiggies = nbPiggies.add(1);\n    uint256 _piggyID = nbPiggies;\n    uint256[] memory _contributions;\n    address _winner;\n\n    piggies[_piggyID] = Piggy({\n      piggyID: _piggyID,\n      value: 0,\n      open: true,\n      creationTime: now,\n      lastContributionTime: now,\n      brokenTime: 0,\n      brokenBlockNumber: 0,\n      contributions: _contributions,\n      winner: _winner\n    });\n\n    rateCurrent = rateLimit;\n    rateNext = rateLimit;\n\n    emit PiggyCreated(_piggyID);\n  }\n\n  function contribute() public payable\n    contributionIsHighEnough(msg.value)\n  {\n    Piggy storage piggy = piggies[nbPiggies];\n    require(piggy.open);\n\n    // If this is the first contribution, the previous winner needs to be revealed\n    if(nbPiggies > 1 && (piggy.value == 0) ) {\n      revealPreviousWinner(nbPiggies.sub(1));\n    }\n\n    piggy.value = piggy.value.add(msg.value);\n\n    piggy.contributions.push(piggy.value);\n    piggy.contributed[msg.sender] = true;\n    piggy.contributors[piggy.value] = msg.sender;\n    piggy.lastContributionTime = now;\n\n    localContributionsCounter = localContributionsCounter.add(1);\n    updateRate();\n\n    emit NewPiggyContribution(nbPiggies, msg.sender, msg.value, getNbContributions(nbPiggies));\n  }\n\n  function updateRate() private {\n    uint256 timeSinceLastUpdate = now.sub(lastUpdateDate);\n    require(rateNext >= rateLimit);\n\n    if ( timeSinceLastUpdate > updatePeriod) {\n      // Update current rate (minimum contribution for the current period)\n      rateCurrent = rateNext;\n\n      // Calculate next rate (minimum contribution for the next period)\n      uint256 decimals = 1000000000;\n      uint256 currentContributionFrequency = localContributionsCounter.mul(decimals).div(timeSinceLastUpdate);\n      if(currentContributionFrequency >= lastContributionFrequency) {\n        rateNext = rateCurrent.mul( percentage.add(100) ).div(100);\n      }\n      else {\n        rateNext = rateCurrent.mul(100).div( percentage.add(100) );\n      }\n\n      if (rateNext < rateLimit) {\n        rateNext = rateLimit;\n      }\n\n      localContributionsCounter = 0;\n      lastUpdateDate = now;\n      lastContributionFrequency = currentContributionFrequency;\n      emit UpdateRate(nbPiggies, rateCurrent, rateNext);\n\n    }\n  }\n\n\n  function breakPiggy() public\n    noPlayerJoinedRecently\n    contributed(msg.sender)\n  {\n    Piggy storage piggy = piggies[nbPiggies];\n    piggy.brokenTime = now;\n    piggy.brokenBlockNumber = block.number;\n    piggy.open = false;\n\n    emit PiggyBroken(nbPiggies, piggy.value, now, getNbContributions(nbPiggies));\n\n    createNewPiggy();\n  }\n\n  function revealPreviousWinner(uint256 _piggyID) private\n    piggyWinnerIsUnknown(_piggyID)\n    blockNumberIsValid(block.number)\n  {\n    Piggy storage piggy = piggies[_piggyID];\n\n    // We need to ensure the element used to define the winner could not be predicted at the time the Piggy was broken (at block #piggy.brokenBlockNumber)\n    uint256 nonPredictableBlockNumber = piggy.brokenBlockNumber.add(1);\n    uint256 distance = block.number - nonPredictableBlockNumber;\n    if( distance > 255 ) {    // Since blockhash() returns 0 if the block is older than 256 blocks, we make sure nonPredictableBlockNumber is not older than 256 blocks.\n      nonPredictableBlockNumber = block.number.sub( distance % 255 );\n    }\n    uint256 winnerNumber = uint256( keccak256(abi.encodePacked(blockhash(nonPredictableBlockNumber))) ) % piggy.value;\n    uint256 totalValue = piggy.value;\n\n    if( piggy.contributions.length == 1) {                                      // If only, one player, he can leave without playing the lottery\n      piggy.winner = piggy.contributors[piggy.contributions[0]];\n    }\n    else {\n      for (uint256 i = 0; i < piggy.contributions.length; i = i.add(1)) {       // If more than one player, play the lottery\n        if( winnerNumber <= piggy.contributions[i] ) {\n          piggy.winner = piggy.contributors[piggy.contributions[i]];\n          uint256 piggyReparationFee = piggy.value.mul(375).div(10000);\n          totalValue = totalValue.sub(piggyReparationFee);\n          pendingReturnValues[farmer] = pendingReturnValues[farmer].add(piggyReparationFee);//A new piggy is offered to the farmer to replace the broken one\n          break;\n        }\n      }\n    }\n\n    pendingReturnValues[piggy.winner] = pendingReturnValues[piggy.winner].add(totalValue);//The winner receives the reward\n    pendingReturnDates[piggy.winner] = now;\n\n    emit WinnerRevealed(_piggyID, piggy.winner, piggy.value);\n  }\n\n  function withdraw(address _withDrawalAddress) public {\n    require(pendingReturnValues[msg.sender]>0);\n    uint256 withdrawalValue = pendingReturnValues[msg.sender];\n    pendingReturnValues[msg.sender] = 0;\n    _withDrawalAddress.transfer(withdrawalValue);\n\n    emit Withdrawal(msg.sender, withdrawalValue);\n  }\n\n  function setRateLimit(uint256 _newRateLimit) public restricted {\n    rateLimit = _newRateLimit;\n  }\n\n  function setUpdatePeriod(uint256 _newUpdatePeriod) public restricted {\n    require(_newUpdatePeriod > 60);\n    updatePeriod = _newUpdatePeriod;\n  }\n\n  function setPercentage(uint256 _newPercentage) public restricted {\n    percentage = _newPercentage;\n  }\n\n  function setPiggyProtectionTime(uint256 _piggyProtectionTime) public restricted {\n    piggyProtectionTime = _piggyProtectionTime;\n  }\n\n  function setPiggyProtectionLimit(uint256 _piggyProtectionLimit) public restricted {\n    piggyProtectionLimit = _piggyProtectionLimit;\n  }\n\n  function getContributionAmount(uint256 _piggyID, address _player) public view returns(uint256) {\n    Piggy storage piggy = piggies[_piggyID];\n    uint256 contributionAmount = 0;\n    for(uint256 i = 0; i < piggy.contributions.length; i = i.add(1)) {\n      if( piggy.contributors[piggy.contributions[i]] == _player ) {\n        if(i==0) {\n          contributionAmount = contributionAmount.add(piggy.contributions[i]);\n        }\n        else {\n          contributionAmount = contributionAmount.add( piggy.contributions[i].sub(piggy.contributions[i.sub(1)]) );\n        }\n      }\n    }\n    return contributionAmount;\n  }\n\n  function getNbContributions(uint256 _piggyID) public view returns(uint256) {\n    Piggy storage piggy = piggies[_piggyID];\n    return piggy.contributions.length;\n  }\n\n  function forgottenFundsRecovery(address _playerAddress, address _withDrawalAddress) public restricted {\n    uint256 oneYear = 365 * 24 * 60 * 60;\n    require(now > oneYear.add(pendingReturnDates[_playerAddress]) );\n    uint256 withdrawalValue = pendingReturnValues[_playerAddress];\n    pendingReturnValues[_playerAddress] = 0;\n    _withDrawalAddress.transfer(withdrawalValue);\n  }\n\n}\n",
  "sourcePath": "/Users/gauthierpetetin/Documents/truffle-test/contracts/PiggyBreaker.sol",
  "compiler": {
    "name": "solc",
    "version": "0.4.24+commit.e67f0147.Emscripten.clang"
  },
  "schemaVersion": "2.0.0",
  "updatedAt": "2018-06-20T23:06:41.898Z"
}